:100000000C946F000C9497000C9497000C9497003C
:100010000C9497000C9497000C9497000C94970004
:100020000C9497000C9497000C9497000C94CD08B6
:100030000C9497000C9497000C9497000C949700E4
:100040000C942B080C9497000C949B080C94750846
:100050000C9497000C9497000C9497000C949700C4
:100060000C9497000C9497004F43544F424F545FA9
:1000700046575F56455253494F4E3A76312E302EF1
:10008000300000000000240027002A0000000000CB
:10009000250028002B000000000023002600290076
:1000A000040404040404040402020202020203031E
:1000B0000303030301020408102040800102040826
:1000C00010200102040810200000000800020100B6
:1000D000000304070000000000000000890911244B
:1000E0001FBECFEFD8E0DEBFCDBF12E0A0E0B1E091
:1000F000E8EEFAE202C005900D92AC3AB107D9F7EA
:1001000026E0ACEAB2E001C01D92AF3EB207E1F7D3
:1001100010E0CFE6D0E004C02197FE010E94581302
:10012000CE36D107C9F70E94EE090C9472150C94D3
:100130000000833081F028F4813099F08230A9F0FA
:1001400008958730A9F08830C9F08430B1F48091E7
:1001500080008F7D03C0809180008F778093800026
:10016000089584B58F7784BD089584B58F7DFBCFC6
:100170008091B0008F778093B00008958091B00097
:100180008F7DF9CFCF93DF93282F30E0F901E8532B
:10019000FF4F8491F901EC54FF4FD491F901E056DF
:1001A000FF4FC491CC23A1F081110E949900EC2F44
:1001B000F0E0EE0FFF1FEA56FF4FA591B491EC91CE
:1001C000ED2381E090E009F480E0DF91CF91089584
:1001D00080E090E0FACF1F93CF93DF93282F30E099
:1001E000F901E853FF4F8491F901EC54FF4FD4918A
:1001F000F901E056FF4FC491CC23A9F0162F8111CD
:100200000E949900EC2FF0E0EE0FFF1FE457FF4F24
:10021000A591B4918FB7F894EC91111108C0D095C5
:10022000DE23DC938FBFDF91CF911F910895DE2BEA
:10023000F8CFCF93DF9390E0FC01EC54FF4F249173
:1002400080569F4FFC0184918823D1F090E0880F65
:10025000991FFC01EE57FF4FA591B491FC01E457A3
:10026000FF4FC591D491623071F49FB7F8943C91DF
:10027000822F809583238C93E8812E2B28839FBF28
:10028000DF91CF9108958FB7F894EC912E2B2C939A
:100290008FBFF6CF806480937C0080917A00806469
:1002A00080937A0080917A0086FDFCCF809178005F
:1002B0009091790008953FB7F89480911906909134
:1002C0001A06A0911B06B0911C0626B5A89B05C076
:1002D0002F3F19F00196A11DB11D3FBFBA2FA92FC5
:1002E000982F8827BC01CD01620F711D811D911DC2
:1002F00042E0660F771F881F991F4A95D1F708952E
:100300008F929F92AF92BF92CF92DF92EF92FF9225
:100310006B017C010E945B014B015C01C114D104A3
:10032000E104F104B9F00E945B01681979098A09B6
:100330009B09683E73408105910580F321E0C21A54
:10034000D108E108F10888EE880E83E0981EA11C10
:10035000B11CE4CFFF90EF90DF90CF90BF90AF90B3
:100360009F908F9008950895AF92BF92CF92DF92A1
:10037000EF92FF920F931F93CF93DF936C017B015A
:100380008B01040F151FEB015E01AE18BF08C017EB
:10039000D10759F06991D601ED91FC910190F0815E
:1003A000E02DC6010995892B79F7C501DF91CF9121
:1003B0001F910F91FF90EF90DF90CF90BF90AF9083
:1003C0000895FC01538D448D252F30E0842F90E05B
:1003D000821B930B541710F0CF9608950197089540
:1003E000FC01918D828D981761F0A28DAE0FBF2F09
:1003F000B11D5D968C91928D9F5F9F73928F90E05F
:1004000008958FEF9FEF0895FC01918D828D9817CD
:1004100031F0828DE80FF11D858D90E008958FEF0A
:100420009FEF0895FC01918D228D892F90E0805CD3
:100430009F4F821B91098F73992708958DE196E054
:100440000E94120221E0892B09F420E0822F0895F6
:1004500080E090E0892B29F00E941E0281110C940B
:1004600000000895FC01A48DA80FB92FB11DA35A57
:10047000BF4F2C91848D90E001968F739927848FC4
:10048000A689B7892C93A089B1898C9183708064E7
:100490008C93938D848D981306C00288F389E02D88
:1004A00080818F7D80830895EF92FF920F931F9339
:1004B000CF93DF93EC0181E0888F9B8D8C8D981317
:1004C0001AC0E889F989808185FF15C09FB7F89423
:1004D000EE89FF896083E889F9898081837080646F
:1004E00080839FBF81E090E0DF91CF911F910F91BA
:1004F000FF90EF900895F62E0B8D10E00F5F1F4FC9
:100500000F731127E02E8C8D8E110CC00FB607FCD7
:10051000FACFE889F989808185FFF5CFCE010E9465
:100520003202F1CFEB8DEC0FFD2FF11DE35AFF4F9F
:10053000F0829FB7F8940B8FEA89FB8980818062F3
:10054000CFCFCF93DF93EC01888D8823B9F0AA89B0
:10055000BB89E889F9898C9185FD03C0808186FD7E
:100560000DC00FB607FCF7CF8C9185FFF2CF8081CD
:1005700085FFEDCFCE010E943202E9CFDF91CF910E
:1005800008958F929F92AF92BF92CF92DF92EF9297
:10059000FF92FC01828158E5C52E52E0D52EC81A83
:1005A000D10887FDD394CC0CDD1CCC0CDD1C0D2CAC
:1005B000000CEE08FF08818178E8872E912C881ABC
:1005C000910887FD9394880C991C880C991C092C20
:1005D000000CAA08BB0880818F3FD1F190E0FC019C
:1005E000EE0FFF1FE80FF91FE654F94F818192814A
:1005F00033E0880F991F3A95E1F7B0E0A0E044E0BE
:10060000B595A795979587954A95D1F702969C0140
:100610002F5F3F4F032E000C440B550B281939094F
:100620004A095B09A4EBB0E00E949411A70196016E
:10063000281939094A095B090E947511C901FF90FF
:10064000EF90DF90CF90BF90AF909F908F900895E4
:1006500090E080E0DCCFCF92DF92EF92FF92CF93D9
:10066000DF93EC01603282E07807CCF5653B7105E1
:1006700014F064EB70E0898128E830E0281B310930
:1006800087FD3395220F331F220F331F6901330F6C
:10069000EE08FF088A8128E532E0281B310987FD32
:1006A0003395220F331F220F331F032E000C440BF0
:1006B000550B2C193D094E095F09DB0177FF02C07C
:1006C000B0E0A0E00E949F1124EB30E040E050E059
:1006D0000E947511C20ED31EE41EF51EB601E881FC
:1006E000EC3070F5298188E890E0821B910927FDA4
:1006F0009395880F991F880F991F681779077CF0C9
:100700002A8188E592E0821B910927FD9395880F45
:10071000991F880F991F681779070CF4CB0102976E
:10072000880F991F4FB7F8942E2F30E0F901EE0F84
:10073000FF1FE20FF31FE654F94F928381834FBFEF
:10074000DF91CF91FF90EF90DF90CF90089580914F
:10075000050681110EC084E00E94C200892B21F49D
:1007600081E080930506089582E00E94C200892BF3
:10077000B9F384E00E94C200019711F080E008956F
:1007800082E00E94C2000197C9F710920506F6CFD9
:100790002F923F924F925F926F927F928F929F9291
:1007A000AF92BF92CF92DF92EF92FF920F931F937F
:1007B000CF93DF93CDB7DEB76E970FB6F894DEBF59
:1007C0000FBECDBF1C017A8B698B10E0812F0E9478
:1007D0004A018D3B92404CF0809148019091490133
:1007E00001969093490180934801812F0E944A010C
:1007F0008C3291404CF480914801909149010197CD
:1008000090934901809348011F5F1430F9F660917D
:100810004801709149011616170614F061E070E066
:100820006B30710514F06AE070E0709349016093D9
:100830004801E989FA8984819581F1012481358112
:10084000821B930B97FF03C0919581959109E989CC
:10085000FA8922813381F10142815381241B350BB6
:1008600037FF03C0319521953109821793070CF4A6
:10087000C901E989FA8920813181F10140815181E1
:10088000241B350B37FF03C03195219531098217A1
:1008900093070CF4C9010E9430137E8B6D8B1616E2
:1008A000170624F021E030E03E8B2D8B09891A8950
:1008B000C80106969C8B8B8BFE0131967F016101EE
:1008C0002D893E892901330F66087708F801619167
:1008D00071918F01F601819191916F01681B790BE4
:1008E000072E000C880B990B0E9479104B015C01BC
:1008F000C301B2010E9479109B01AC01C501B40192
:100900000E947C12F70161937193819391937F010F
:100910002B893C8902171307C9F6AA24A394B12C8A
:10092000C10106969E8F8D8FED89FE89EA15FB0524
:100930000CF468C023ED32E0388F2F8B0BEC12E003
:100940008FED882E86E0982ECE0101969A8F898FA2
:100950003C8A2B8A25010B2C000C66087708EB8952
:10096000FC8921913191FC8BEB8B3C8F2B8FE98D96
:10097000FA8DC190D190E190F190FA8FE98FC30187
:10098000B2010E947910A70196010E94B4106B0178
:100990007C012B8D3C8DB901330F880B990B0E9484
:1009A00079109B01AC01C701B6010E9410120E9490
:1009B000EE12EF89F88D21913191F88FEF8B62174C
:1009C00073074CF0F80120813181261737071CF09E
:1009D000C4010E942B030E5F1F4FF3E08F0E911C8A
:1009E0002D8D3E8D8B899C892817390709F0B7CF4B
:1009F00064E170E080E090E00E9480019FEFA91A1E
:100A0000B90A92CFE989FA896681778188EE96E002
:100A10000E942B0364E170E080E090E06E960FB6D8
:100A2000F894DEBF0FBECDBFDF91CF911F910F9124
:100A3000FF90EF90DF90CF90BF90AF909F908F90FE
:100A40007F906F905F904F903F902F900C9480011B
:100A5000FC0101900020E9F73197AF01481B590BC9
:100A6000BC018DE196E00C94B4010C942805CF9361
:100A7000DF930E942805EC0182E691E00E942805A0
:100A80008C0F9D1FDF91CF9108958F929F92AF920F
:100A9000BF92CF92DF92EF92FF920F931F93CF936B
:100AA000DF93CDB7DEB7A1970FB6F894DEBF0FBEC8
:100AB000CDBF6C01990FEE08FF08F7FE41C06DE253
:100AC0008DE196E00E9454028C0122273327A90170
:100AD0002C193D094E095F0919A2CE0181967C01AE
:100AE0009AE0892E912CA12CB12CCA01B901A50143
:100AF00094010E94DE11605DF70162937F01211570
:100B000031054105510589F790E080E0309719F0F3
:100B1000CF010E942805800F911FA1960FB6F8946F
:100B2000DEBF0FBECDBFDF91CF911F910F91FF9020
:100B3000EF90DF90CF90BF90AF909F908F900895EF
:100B4000A701960119A28E010F5D1F4F8AE0C82EE2
:100B5000D12CE12CF12CCA01B901A70196010E9408
:100B6000DE11605DF80162938F01211531054105A9
:100B7000510589F790E080E0309779F2CF010E942B
:100B80002805CBCFCF93DF930E944505EC0182E689
:100B900091E00E9428058C0F9D1FDF91CF91089551
:100BA0000F931F93CF93DF9385E691E00E94350565
:100BB00089E090E00E94C20560E071E08DEA92E079
:100BC0000E94C803C0E0D1E00E94A703882349F037
:100BD0001092060610920706DF91CF911F910F9198
:100BE00008958E01085F1F4FB801CE010E94C8030F
:100BF000E8010054114041F7E5CF8F929F92AF92E8
:100C0000BF92CF92DF92EF92FF920F931F93CF93F9
:100C1000DF9361E083E00E94EB008CE791E00E94AB
:100C2000350580910306909104060E94C20581EA71
:100C300091E00E94350580914801909149010E9400
:100C4000C205009103061091040601501109E80144
:100C500093E0CC0FDD1F9A95E1F7CD51DD4F63EEA8
:100C600072E0CE010E94C80324EFE22EFF24F39429
:100C700083EEC82E82E0D82EB12CA12CA016B1068E
:100C800014F50E94A703460198E0890E911C882361
:100C900089F01092060610920706DF91CF911F91FE
:100CA0000F91FF90EF90DF90CF90BF90AF909F900B
:100CB0008F9008958FEFA81AB80AB401C6010E9458
:100CC000C8036401DBCF6091480170914901C701FD
:100CD0000E943013072E000C880B990B0E94800194
:100CE00063EE72E0CE010E94C803609148017091EA
:100CF0004901C7010E943013072E000C880B990B85
:100D00000E948001B5CFCF93DF93EC018881998158
:100D1000009711F00E94FA13198218821D821C821A
:100D20001B821A82DF91CF910895FC01808191810D
:100D3000009711F00C94FA130895FC0180819181C1
:100D4000009711F00C94321060E070E0CB01089530
:100D5000FB0144815581FC0124813581241735072D
:100D600078F080819181009759F0FB016081718159
:100D70006115710529F00E94641521E0892B09F0A5
:100D800020E0822F0895FC0124813581232B39F442
:100D900021E0FB018081882349F020E007C08081A9
:100DA00091810E94541521E0892BB9F7822F089573
:100DB0000F931F93CF93DF93EC0188819981009764
:100DC00059F02A813B812617370730F081E0DF9107
:100DD000CF911F910F9108958B016F5F7F4F0E94FC
:100DE0008314009759F0998388831B830A832C818D
:100DF0003D81232B59F7FC011082E8CF80E0E7CF3B
:100E0000EF92FF920F931F93CF93DF9361157105BC
:100E100041F480E0DF91CF911F910F91FF90EF900F
:100E2000089541155105B1F07B01EC010C811D8144
:100E3000040F151FB8010E94D806882351F328819A
:100E400039818C819D81B701820F931F0E945D15AE
:100E50001D830C8381E0DECFEF92FF920F931F93EF
:100E6000CF93DF93EC017B018A01BA010E94D8067F
:100E700081110BC0CE010E948306CE01DF91CF917C
:100E80001F910F91FF90EF9008951D830C83B70180
:100E9000888199810E945D15F0CFFC01118210823A
:100EA00013821282158214826115710551F0FB01C3
:100EB00001900020E9F73197AF01461B570B0C94C6
:100EC0002C070895AF92BF92CF92DF92EF92FF92DC
:100ED0000F931F93CF93DF937C016B015A0189011C
:100EE0002417350720F48B2D5901042F182F64E6A1
:100EF00071E0C7010E944D07D6011496CD91DC9197
:100F0000AC16BD0620F50C171D0708F4E801D60144
:100F1000ED91FC911197EC0FFD1F108110826D91E6
:100F20007C916A0D7B1D61157105E9F0FB01019053
:100F30000020E9F73197AF01461B570BC7010E940C
:100F40002C07F60180819181C80FD91F1883C70132
:100F5000DF91CF911F910F91FF90EF90DF90CF9095
:100F6000BF90AF900895C7010E948306EACFEF9229
:100F7000FF920F931F93CF93DF93CDB7DEB72C97DC
:100F80000FB6F894DEBF0FBECDBF8C016BE572E0EB
:100F9000CE0107960E944D07BE01695F7F4FC801D1
:100FA0000E94A806882399F0F80184819581892BF5
:100FB00071F0E080F1806AE370E0C7010E9449159A
:100FC000009729F08E199F09029709F442C061EB3E
:100FD00071E0C8010E94C30681113BC068EB71E05B
:100FE000C8010E94C306811134C06DEB71E0C801D5
:100FF0000E94C30681112DC062EC71E0C8010E94FD
:10100000C306811126C067EC71E0CE0101960E94F3
:101010004D07BE016F5F7F4FC8010E94A80611E017
:10102000811101C010E0CE0101960E949506CE010B
:1010300007960E949506812F2C960FB6F894DEBF76
:101040000FBECDBFDF91CF911F910F91FF90EF9019
:10105000089511E0ECCF1F920F920FB60F9211245A
:101060002F933F938F939F93AF93BF9380911506D8
:1010700090911606A0911706B091180630911406AB
:1010800023E0230F2D3758F50196A11DB11D2093A4
:1010900014068093150690931606A0931706B09336
:1010A00018068091190690911A06A0911B06B0911E
:1010B0001C060196A11DB11D8093190690931A0676
:1010C000A0931B06B0931C06BF91AF919F918F9187
:1010D0003F912F910F900FBE0F901F90189526E80B
:1010E000230F0296A11DB11DD2CF1F920F920FB6F2
:1010F0000F9211242F933F934F935F936F937F939E
:101100008F939F93AF93BF93EF93FF938DE196E0FF
:101110000E943202FF91EF91BF91AF919F918F9109
:101120007F916F915F914F913F912F910F900FBEE3
:101130000F901F9018951F920F920FB60F921124C7
:101140002F938F939F93EF93FF93E0912D06F09150
:101150002E068081E0913306F091340682FD1BC09B
:101160009081809136068F5F8F73209137068217AA
:1011700041F0E0913606F0E0E35EF94F958F809301
:101180003606FF91EF919F918F912F910F900FBE97
:101190000F901F9018958081F4CF1F920F920FB679
:1011A0000F9211242F933F934F935F936F937F93ED
:1011B0008F939F93AF93BF93CF93DF93EF93FF935F
:1011C0008091AC02C091DE06D0E087FF24C010926F
:1011D0008500109284008091AC028F5F8093AC02F6
:1011E0008091AC02082E000C990B8C179D0724F4FB
:1011F0008091AC028C30C4F1809184009091850084
:10120000049680349C4908F47AC0809184009091BF
:101210008500049676C08091AC02082E000C990BD4
:101220008C179D07C4F6E091AC028E2FEE0F990B40
:10123000FC01EE0FFF1FE80FF91FE654F94F808104
:1012400086FFC9CFE091AC028E2FEE0F990BFC0107
:10125000EE0FFF1FE80FF91FE654F94F808160E0A1
:101260008F730E94EB00B7CF2091840030918500EE
:10127000E091AC028E2FEE0F990BFC01EE0FFF1FD9
:10128000E80FF91FE654F94F81819281820F931F75
:101290009093890080938800E091AC028E2FEE0F2E
:1012A000990BFC01EE0FFF1FE80FF91FE654F94FF1
:1012B000808186FF11C0E091AC028E2FEE0F990B5A
:1012C000FC01EE0FFF1FE80FF91FE654F94F808174
:1012D00061E08F730E94EB00FF91EF91DF91CF915E
:1012E000BF91AF919F918F917F916F915F914F913E
:1012F0003F912F910F900FBE0F901F90189580E493
:101300009CE990938900809388008FEF8093AC02D2
:10131000E3CF1092200610921F0688EE93E0A0E023
:10132000B0E08093210690932206A0932306B09309
:10133000240684E591E090931E0680931D0685ECBB
:1013400090E090932A068093290684EC90E0909395
:101350002C0680932B0680EC90E090932E068093D1
:101360002D0681EC90E09093300680932F0682EC5E
:1013700090E0909332068093310686EC90E0909353
:101380003406809333061092360610923706109278
:10139000380610923906EFEDF6E02BEE36E04FEF0F
:1013A00068EB7BE08091DE068C30B0F491E0980F22
:1013B0009093DE06808390E0DC01AA0FBB1FA80F8C
:1013C000B91FA654B94F12967C936E93119733961A
:1013D0002E173F0739F708954083F9CFCF93DF9356
:1013E000CDB7DEB769970FB6F894DEBF0FBECDBF9D
:1013F000789484B5826084BD84B5816084BD85B5F0
:10140000826085BD85B5816085BD80916E008160FB
:1014100080936E00109281008091810082608093A1
:1014200081008091810081608093810080918000A3
:101430008160809380008091B10084608093B100CE
:101440008091B00081608093B00080917A008460C8
:1014500080937A0080917A00826080937A008091F4
:101460007A00816080937A0080917A00806880930E
:101470007A001092C100E0912D06F0912E0682E0D4
:101480008083E0912906F0912A061082E0912B06D4
:10149000F0912C0680E1808310923506E0913106B0
:1014A000F091320686E08083E0912F06F0913006BD
:1014B000808180618083E0912F06F09130068081E9
:1014C00088608083E0912F06F091300680818068EB
:1014D0008083E0912F06F091300680818F7D80839C
:1014E00062E082E00E94190162E084E00E9419013A
:1014F00061E083E00E94190161E083E00E94EB005B
:101500008CEC91E00E94370508E610E0F801649148
:10151000662341F08DE196E00E9454020F5F1F4F59
:10152000892BA1F782E691E00E94280582E00E94C3
:10153000C2000E9445058EED91E00E94350584E0D1
:101540000E94C2000E94C2058BE090E09093B60218
:101550008093B50281E490E09093D4028093D3020B
:1015600087E890E09093CC028093CB028AE590E0EC
:101570009093AE028093AD022AE030E03093B8023F
:101580002093B70220E530E03093D6022093D502B5
:101590002CE830E03093CE022093CD029093B0023D
:1015A0008093AF0229E030E03093BA022093B90271
:1015B00026E430E03093D8022093D70228E730E0C9
:1015C0003093D0022093CF029093B2028093B10265
:1015D00085E090E09093BC028093BB029093DA0286
:1015E0008093D9028EE190E09093D2028093D10251
:1015F0009093B4028093B302E3EEF2E01182108282
:10160000138212821582148217821682389606E09F
:10161000E330F00799F71DEAC12E12E0D12E05EB59
:10162000E02E02E0F02E8BEDA82E82E0B82E0FED1A
:1016300016E09BE0892E27EE722E3CE0932E42E0CE
:10164000642ED8018C918C3008F053C0F701508083
:1016500061E0852D0E941901D8018C91282F30E07E
:10166000F901EE0FFF1FE20FF31FE654F94FB52DFE
:10167000BF735B2E9081907C592A5082F801818241
:101680007282692D0E942413899DA001112430E0EB
:1016900020E0BA01620F731FFB01EE0FFF1FE60F80
:1016A000F71FE654F94F908196FD15C02F5F3F4F0D
:1016B0002C30310571F781110EC0109280006092BC
:1016C00081001092850010928400B19A80916F0081
:1016D000826080936F00D801EC918E2F90E0FC0126
:1016E000EE0FFF1FE80FF91FE654F94F8081806469
:1016F0008083F601619171916F01C8010E942B03F3
:10170000D5011D921D925D010D5F1F4FB2E0EB0EE2
:10171000F11CE6E00B3E1E0709F093CF82E00E9429
:10172000C200892BC1F481E08093060680930506F0
:10173000109204061092030668EE73E080E090E0D9
:101740000E94800160E083E00E94EB0081EE91E066
:101750000E9437050FC084E00E94C200892B09F067
:10176000F2C081E08093050687EF91E00E94370583
:101770000E94D0054EE1242E312C8091C3028111AC
:1017800009C064E671E08DEB92E00E944D0781E0B4
:101790008093C302992493948DE196E00E941202F3
:1017A0007C01892B09F4E2C28DE196E00E94F001F0
:1017B0008A3009F0CCC21C8A1B8A1E8A1D8A188EA8
:1017C0001F8A6091BD027091BE026115710541F0E2
:1017D0004091C1025091C202CE0143960E942C0753
:1017E000CB88DC88C114D10439F00F89188D7601BB
:1017F0000115110509F0E1C08F89988D892B09F435
:1018000095C06CE272E0CE0101960E944D07BE01C8
:101810006F5F7F4FCE0143960E94A806182FCE011E
:1018200001960E949506112309F419C162E372E042
:10183000CE0101960E944D076CE272E0CE01079640
:101840000E944D074D815E8169817A81CE010796A4
:101850000E940007811104C0CE0107960E948306F2
:1018600041E050E06FED71E0CE0107960E94000765
:10187000811104C0CE0107960E9483061E861D8634
:10188000188A1F861A8A198A6F81788561157105F1
:1018900031F04B855C85CE010D960E942C07CE0160
:1018A00007960E949506CE0101960E949506BE01FC
:1018B000635F7F4FCE0143960E94A80610E0882305
:1018C00059F12F89388D49895A89BE016D5E7F4F44
:1018D000CE0101960E9462078B899C89009709F4CA
:1018E000A4C069817A816115710509F49CC04D8994
:1018F0005E892D813E814217530708F494C00E94EF
:101900005D158D819E81988F8F8B1E821D82CE01E9
:1019100001960E94950611E0CE010D960E94950653
:10192000111194C083E492E00E943705CE014396E2
:101930000E94950650E040E064E671E08DEB92E095
:101940000E942C0729CF68EE73E080E090E00E94AF
:10195000800165E070E088EE96E00E942B0366E966
:1019600070E080E090E00E9480016EE170E088EE1F
:1019700096E00E942B0366E970E080E090E00E9410
:10198000800165E070E088EE96E00E942B0366E936
:1019900070E080E090E00E9480016EE170E088EEEF
:1019A00096E00E942B0366E970E080E090E00E94E0
:1019B00080018EE092E0CCCE75015701FFEFAF1AA7
:1019C000BF0AD7018C91082E000C990B0E946E1053
:1019D000892B91F7015011090C0D1D1DF801808113
:1019E000082E000C990B0E946E10892B31F00E15F9
:1019F0001F0518F001501109F1CF0F5F1F4FA8010B
:101A00004E195F09588F4F8BCE14DF0420F4B701B5
:101A1000C6010E944015EB89FC898F89988DE80FDB
:101A2000F91F1082E9CE0E94FA1389819A819C8B5A
:101A30008B8B8B819C819E8B8D8B8D819E81988FD2
:101A40008F8B1A8219821C821B825FCFCE01439634
:101A50000E94B707811109C08CE492E065CFCE01E6
:101A600043960E94B70781115DCF6BE572E0CE010E
:101A700001960E944D07BE016F5F7F4FCE014396D6
:101A80000E94A806882391F08F89988D892B71F088
:101A90000B891C896AE370E0C8010E944915009710
:101AA00029F0801B910B11E0029709F010E0CE01A4
:101AB00001960E949506112309F45AC02F89388D8A
:101AC0002230310508F44FC0EB89FC89309709F4C6
:101AD0004AC00181002E000C110B0053110943E094
:101AE00050E0BE016D5E7F4FCE0101960E946207FD
:101AF000CE0101960E949D062B01CE0101960E9407
:101B000095060430110588F57801EE0CFF1CF701ED
:101B1000ED52FD4F208131814216530634F1F70119
:101B2000E553FD4F2081318124153505F4F0C701BF
:101B3000800F911FB2018152994F0E942B03F70130
:101B4000E85FF94F5182408288E592E00E943505B6
:101B5000C8010E9445058AEC91E00E943505C2014A
:101B60000E94C205E3CE00E0B5CF8DE592E0DCCE69
:101B700062EC71E0CE0143960E94C306882319F0FF
:101B80000E94D005D3CE67E672E0CE0143960E9454
:101B9000C306882339F0909206061092040610922C
:101BA0000306C4CE61EB71E0CE0143960E94C306EA
:101BB000882309F441C0E0900306F0900406F4E69F
:101BC000EF16F104B4F58FED96E00E94C102870193
:101BD00023E0000F111F2A95E1F70D511D4FD80189
:101BE0008D939C9382EE96E00E94C102F80193834C
:101BF000828385EE96E00E94C102D80115969C93DF
:101C00008E93149788EE96E00E94C102F8019783A4
:101C10008683FFEFEF1AFF0AF0920406E0920306B4
:101C20008DE692E00E9435058091030690910406AE
:101C300097CF88E792E078CE68EB71E0CE014396CB
:101C40000E94C306882329F0909207060E94FD0592
:101C50006DCE6DEB71E0CE0143960E94C3068823E2
:101C600029F0109206061092070697CF67EC71E0F4
:101C7000CE0101960E944D07BE016F5F7F4FCE01DE
:101C800043960E94A806082FCE0101960E94950651
:101C9000002309F456C02F89388D44E050E0BE017E
:101CA0006D5E7F4FCE010D960E946207CE010D96AC
:101CB0000E949D061616170618061906D4F52F89D8
:101CC000388D44E050E0BE016D5E7F4FCE01079637
:101CD0000E946207CE0107960E949D066B30710537
:101CE0008105910554F52F89388D44E050E0BE01FF
:101CF0006D5E7F4FCE0101960E946207CE01019674
:101D00000E949D0611E001E0709349016093480133
:101D1000112321F0CE0101960E949506002321F0A7
:101D2000CE0107960E949506CE010D960E9495065B
:101D3000FDCD00E061E070E0E7CF01E06AE070E037
:101D4000E3CF8F89988D892B09F4F0CD85CE8D3026
:101D500009F422CD89831A8241E050E0BE016F5F11
:101D60007F4F8DEB92E00E94000716CDE8E04E2EEB
:101D7000E6E05E2EF3ED6F2EF2E07F2E5201AFED26
:101D80008A2EA6E09A2EBBEDCB2EB2E0DB2E10E021
:101D900000E0198E802F0E944A01D6018D939C93FA
:101DA00081E892E00E943505C8010E94450584E85B
:101DB00092E00E943505F601808191810E944505DF
:101DC0008EED91E00E943505C4010E94C102D5014B
:101DD0008D939D935D01F601208131812D3BF2E0D1
:101DE0003F070CF4C8C0D3012D913C912817390747
:101DF0002CF4F5013297019791838083033011050C
:101E000009F4B2C0B1E0B98F0F5F1F4F42E0C40EBA
:101E1000D11C83E0880E911C92E0690E711C043085
:101E2000110509F0B7CF84E691E00E943705098DCE
:101E3000002389F15FEDC52E56E0D52E68E0A62E71
:101E400066E0B62E10E000E087E892E00E943505DB
:101E5000C8010E94450584E892E00E943505D5013D
:101E60008D919C910E9445058EED91E00E94350573
:101E7000F501619171915F01C6010E942B030F5F13
:101E80001F4FF3E0CF0ED11C04301105E9F684E6B4
:101E900091E00E94370564E170E080E090E00E94EC
:101EA0008001809107068111DAC08091060688239F
:101EB00049F084E00E94C200892B09F07CC081E0D7
:101EC000809307062FB7F894809115069091160617
:101ED000A0911706B09118062FBF4091100650919F
:101EE000110660911206709113068C019D01041B6E
:101EF000150B260B370BB901A8014A3F51056105A7
:101F0000710528F18093100690931106A093120694
:101F1000B093130684EA92E00E943505D2018D91B8
:101F20009D912D010E944505B3E0EB16F10421F0CF
:101F300089EA92E00E943505EFEFEE1AFE0AF4E01E
:101F4000EF16F10459F784E691E00E94370580E02E
:101F500090E0892B09F411CC0E941E02882309F419
:101F60000CCC0E94000009CC30920F0620920E0685
:101F7000E1E0E98F49CF2C3231400CF045CFF80138
:101F8000EE0FFF1FE553FD4F20813181821793072C
:101F90002CF4FD0132970196918380830330110563
:101FA00009F030CF25E030E030930F0620930E0685
:101FB00031E0398F29CF82E00E94C2008C01BB241E
:101FC000B394892B09F0B12C80910506811140C092
:101FD00001151105E9F580910306909104068436F8
:101FE0009105CCF58EE892E00E94350580910306BC
:101FF000909104060E94C2054FEDC42E46E0D42EF7
:10200000C6010E94C102E0910306F0910406EE0FA2
:10201000FF1FEE0FFF1FE00FF11FEE0FFF1FED512F
:10202000FD4F918380830F5F1F4F23E0C20ED11CB1
:102030000430110529F784E691E00E94370580916C
:10204000030690910406019690930406809303067C
:10205000B092050637CF81E080930706F9CF0E9442
:10206000FD0530CF1F93FC0199278827BC01E89418
:1020700011911032E9F3193010F01E30C8F31B3201
:1020800051F01D3249F4689406C00E945910610F46
:10209000711D811D911D119110531A30B0F33EF442
:1020A00090958095709561957F4F8F4F9F4F1F91B1
:1020B0000895592F482F372F262F660F771F881F17
:1020C000991F660F771F881F991F620F731F841F48
:1020D000951F660F771F881F991F089591110C9403
:1020E0002111803219F089508550C8F70895E8947D
:1020F00009C097FB3EF490958095709561957F4F50
:102100008F4F9F4F9923A9F0F92F96E9BB279395FD
:10211000F695879577956795B795F111F8CFFAF40D
:10212000BB0F11F460FF1BC06F5F7F4F8F4F9F4F3E
:1021300016C0882311F096E911C0772321F09EE89C
:10214000872F762F05C0662371F096E8862F70E002
:1021500060E02AF09A95660F771F881FDAF7880FDC
:102160009695879597F908950E94C7100C943B1196
:102170000E942D1138F00E94341120F0952311F0A7
:102180000C9424110C942A1111240C946F110E94A8
:102190004C1170F3959FC1F3950F50E0551F629F4E
:1021A000F001729FBB27F00DB11D639FAA27F00DB0
:1021B000B11DAA1F649F6627B00DA11D661F829FD7
:1021C0002227B00DA11D621F739FB00DA11D621FBC
:1021D000839FA00D611D221F749F3327A00D611DD9
:1021E000231F849F600D211D822F762F6A2F1124BB
:1021F0009F5750409AF0F1F088234AF0EE0FFF1FEE
:10220000BB1F661F771F881F91505040A9F79E3F44
:10221000510580F00C9424110C946F115F3FE4F38E
:10222000983ED4F3869577956795B795F795E7959A
:102230009F5FC1F7FE2B880F911D9695879597F9A3
:10224000089599278827089597F99F6780E870E097
:1022500060E008959FEF80EC089500240A9416161C
:10226000170618060906089500240A941216130684
:10227000140605060895092E0394000C11F4882312
:1022800052F0BB0F40F4BF2B11F460FF04C06F5F2E
:102290007F4F8F4F9F4F089557FD9058440F551F04
:1022A00059F05F3F71F04795880F97FB991F61F0D8
:1022B0009F3F79F087950895121613061406551F4F
:1022C000F2CF4695F1DF08C0161617061806991FBB
:1022D000F1CF86957105610508940895E894BB27B0
:1022E00066277727CB0197F90895052E97FB1EF4F3
:1022F00000940E948C1157FD07D00E94DE1107FC4C
:1023000003D04EF40C948C11509540953095219546
:102310003F4F4F4F5F4F0895909580957095619511
:102320007F4F8F4F9F4F08950E940012A59F900DE1
:10233000B49F900DA49F800D911D11240895B7FFA7
:102340000C9494110E949411821B930B08952F9268
:102350003F924F925F926F927F928F929F92AF9235
:10236000BF92CF92DF92EF92FF920F931F93CF9382
:10237000DF93CDB7DEB7CA1BDB0B0FB6F894DEBF19
:102380000FBECDBF09942A88398848885F846E843F
:102390007D848C849B84AA84B984C884DF80EE8089
:1023A000FD800C811B81AA81B981CE0FD11D0FB692
:1023B000F894DEBF0FBECDBFED010895A1E21A2E45
:1023C000AA1BBB1BFD010DC0AA1FBB1FEE1FFF1FD9
:1023D000A217B307E407F50720F0A21BB30BE40B29
:1023E000F50B661F771F881F991F1A9469F7609570
:1023F0007095809590959B01AC01BD01CF0108952A
:10240000A29FB001B39FC001A39F700D811D112435
:10241000911DB29F700D811D1124911D089550587A
:10242000BB27AA270E9427120C943B110E942D1152
:1024300038F00E94341120F039F49F3F19F426F44B
:102440000C942A110EF4E095E7FB0C942411E92F6B
:102450000E944C1158F3BA17620773078407950757
:1024600020F079F4A6F50C946E110EF4E0950B2E85
:10247000BA2FA02D0B01B90190010C01CA01A001D6
:102480001124FF27591B99F0593F50F4503E68F131
:102490001A16F040A22F232F342F4427585FF3CF72
:1024A000469537952795A795F0405395C9F77EF443
:1024B0001F16BA0B620B730B840BBAF09150A1F08C
:1024C000FF0FBB1F661F771F881FC2F70EC0BA0F12
:1024D000621F731F841F48F4879577956795B7959A
:1024E000F7959E3F08F0B0CF9395880F08F0992795
:1024F000EE0F9795879508950E9490120C943B11CA
:102500000E94341158F00E942D1140F029F45F3FD1
:1025100029F00C94241151110C946F110C942A1170
:102520000E944C1168F39923B1F3552391F3951B45
:10253000550BBB27AA2762177307840738F09F5FE4
:102540005F4F220F331F441FAA1FA9F335D00E2E51
:102550003AF0E0E832D091505040E695001CCAF7BE
:102560002BD0FE2F29D0660F771F881FBB1F261781
:1025700037074807AB07B0E809F0BB0B802DBF0158
:10258000FF2793585F4F3AF09E3F510578F00C9427
:1025900024110C946F115F3FE4F3983ED4F38695B9
:1025A00077956795B795F7959F5FC9F7880F911D48
:1025B0009695879597F90895E1E0660F771F881F34
:1025C000BB1F621773078407BA0720F0621B730BE7
:1025D000840BBA0BEE1F88F7E09508950E94F51260
:1025E0006894B1110C946F1108950E94541188F0F1
:1025F0009F5798F0B92F9927B751B0F0E1F0660FC7
:10260000771F881F991F1AF0BA95C9F714C0B13007
:1026100091F00E946E11B1E008950C946E11672F35
:10262000782F8827B85F39F0B93FCCF38695779536
:102630006795B395D9F73EF490958095709561951F
:102640007F4F8F4F9F4F0895991B79E004C0991FCA
:10265000961708F0961B881F7A95C9F780950895FC
:1026600097FB072E16F4009407D077FD09D00E943F
:10267000441307FC05D03EF4909581959F4F089533
:10268000709561957F4F0895AA1BBB1B51E107C050
:10269000AA1FBB1FA617B70710F0A61BB70B881FF2
:1026A000991F5A95A9F780959095BC01CD01089581
:1026B000EE0FFF1F0590F491E02D09940F931F93E7
:1026C000CF93DF938230910510F482E090E0E091A7
:1026D000ED06F091EE0630E020E0B0E0A0E03097AB
:1026E00099F42115310509F44AC0281B390B24300F
:1026F0003105D8F58A819B816115710589F1FB014E
:1027000093838283FE0111C0408151810281138134
:1027100048175907E0F04817590799F4109761F0E6
:1027200012960C93129713961C933296CF01DF9159
:10273000CF911F910F9108950093ED061093EE062F
:10274000F4CF2115310551F04217530738F0A90194
:10275000DB019A01BD01DF01F801C1CFEF01F9CF23
:102760009093EE068093ED06CDCFFE01E20FF31FAE
:10277000819391932250310939832883D7CF2091B7
:10278000EB063091EC06232B41F420914C01309163
:102790004D013093EC062093EB0620914A013091D5
:1027A0004B012115310541F42DB73EB740914E0143
:1027B00050914F01241B350BE091EB06F091EC0694
:1027C000E217F307A0F42E1B3F0B2817390778F008
:1027D000AC014E5F5F4F2417350748F04E0F5F1F67
:1027E0005093EC064093EB06819391939FCFF0E0DA
:1027F000E0E09CCFCF93DF930097E9F0FC013297A4
:1028000013821282A091ED06B091EE06ED0130E048
:1028100020E01097A1F420813181820F931F209135
:10282000EB063091EC062817390709F061C0F093E8
:10283000EC06E093EB06DF91CF910895EA01CE1705
:10284000DF07E8F54A815B819E0141155105B1F72B
:10285000E901FB83EA8349915991C40FD51FEC1715
:10286000FD0761F4808191810296840F951FE90133
:1028700099838883828193819B838A83F0E0E0E05F
:1028800012968D919C9113970097B9F52D913C91DB
:102890001197CD010296820F931F2091EB06309184
:1028A000EC062817390739F6309751F51092EE06E5
:1028B0001092ED06B093EC06A093EB06BCCFD38349
:1028C000C28340815181840F951FC817D90761F4D5
:1028D0004E5F5F4F88819981480F591F5183408314
:1028E0008A819B81938382832115310509F0B0CFC2
:1028F000F093EE06E093ED069ECFFD01DC01C0CF24
:1029000013821282D7CFB0E0A0E0E9E8F4E10C94A2
:10291000A9118C01009751F4CB010E945E138C0128
:10292000C801CDB7DEB7E0E10C94C511FC01E60F9C
:10293000F71F9C0122503109E217F30708F49DC0EC
:10294000D901CD91DC911197C617D70798F0C53002
:10295000D10530F3CE0104978617970708F3C61BFD
:10296000D70B2297C193D1936D937C93CF010E9493
:10297000FA13D6CF5B01AC1ABD0A4C018C0E9D1E1A
:10298000A091ED06B091EE06512C412CF12CE12CDA
:10299000109731F58091EB069091EC06881599051A
:1029A00009F05CC04616570608F058C080914A01ED
:1029B00090914B01009741F48DB79EB740914E0125
:1029C00050914F01841B950BE817F90708F055C08B
:1029D000F093EC06E093EB06F90171836083A0CFDE
:1029E0008D919C91119712966C90129713967C90F2
:1029F0001397A815B90559F56C0142E0C40ED11C16
:102A0000CA14DB0420F1AC014A195B09DA01129601
:102A1000159780F06282738251834083D9016D9350
:102A20007C93E114F10471F0D7011396FC93EE93BB
:102A3000129776CF22968C0F9D1FF9019183808388
:102A4000F301EFCFF093EE06E093ED0669CF481661
:102A5000590608F42C017D01D3019ACFCB010E94C5
:102A60005E137C01009749F0AE01B8010E94401549
:102A7000C8010E94FA13870153CF10E000E050CF45
:102A8000FB01DC0102C001900D9241505040D8F78B
:102A90000895FC018191861721F08823D9F79927A1
:102AA00008953197CF010895FB01DC018D910190CC
:102AB00080190110D9F3990B0895FB01DC010190F5
:102AC0000D920020E1F70895FB01DC0141505040D8
:102AD00030F08D910190801919F40020B9F7881B0E
:082AE000990B0895F894FFCF53
:102AE8005A0050007800050041008C005A001E0072
:102AF8005A0050007800050087008C005A001E001C
:102B08005A0050007800050087008C005A001E000B
:102B18005A0050007800050041008C005A001E0041
:102B28005A0050007800050001000000EF06800000
:102B3800000000005402B401E101A1021202F001F8
:102B480004020D0A0064656D6F5F616374696F6EDE
:102B58007320636F756E7473203D2000706C61790B
:102B68005F6C6561726E65645F616374696F6E73D3
:102B78003A20746F74616C20616374696F6E733D81
:102B8800006D6F76696E67207370656564203D20FF
:102B9800005245434F524400504C41590053544F42
:102BA800500044454D4F005350443A0053797374D4
:102BB800656D2052756E6E696E672E2E2E002C2064
:102BC80000456E746572206C6561726E696E675F30
:102BD8006D6F6465212100456E74657220706C61AB
:102BE800795F64656D6F5F6D6F6465212100456E67
:102BF800746572204A6F79537469636B20436F6EF2
:102C080074726F6C204D6F646521210050415353DD
:102C18003A004F63746F5375706572426F74323047
:102C280032360045525220415554480045525220F0
:102C3800554E4B4E4F574E004F4B20530045525266
:102C48002052414E4745004C4541524E004F4B20C3
:102C58005245434F524420004552522046554C4C51
:102C680000415B005D3D00736572766F5B006C65CB
:102C780061726E5F616374696F6E5F636F756E74A6
:0C2C8800203D2000414E473A002C000087
:00000001FF
